{
  "_format": "hh-sol-artifact-1",
  "contractName": "Splitwise",
  "sourceName": "contracts/mycontract.sol",
  "abi": [
    {
      "inputs": [
        {
          "internalType": "address",
          "name": "creditor",
          "type": "address"
        },
        {
          "internalType": "uint32",
          "name": "amount",
          "type": "uint32"
        },
        {
          "internalType": "address[]",
          "name": "cycle",
          "type": "address[]"
        }
      ],
      "name": "add_IOU",
      "outputs": [],
      "stateMutability": "nonpayable",
      "type": "function"
    },
    {
      "inputs": [
        {
          "internalType": "address",
          "name": "",
          "type": "address"
        },
        {
          "internalType": "address",
          "name": "",
          "type": "address"
        }
      ],
      "name": "balances",
      "outputs": [
        {
          "internalType": "uint32",
          "name": "",
          "type": "uint32"
        }
      ],
      "stateMutability": "view",
      "type": "function"
    },
    {
      "inputs": [
        {
          "internalType": "address",
          "name": "debtor",
          "type": "address"
        },
        {
          "internalType": "address",
          "name": "creditor",
          "type": "address"
        }
      ],
      "name": "lookup",
      "outputs": [
        {
          "internalType": "uint32",
          "name": "",
          "type": "uint32"
        }
      ],
      "stateMutability": "view",
      "type": "function"
    }
  ],
  "bytecode": "0x608060405234801561001057600080fd5b506109db806100206000396000f3fe608060405234801561001057600080fd5b50600436106100415760003560e01c8063713584a614610046578063c23f001f14610076578063dd033b8d146100a6575b600080fd5b610060600480360381019061005b9190610695565b6100c2565b60405161006d91906106f4565b60405180910390f35b610090600480360381019061008b9190610695565b610158565b60405161009d91906106f4565b60405180910390f35b6100c060048036038101906100bb91906107a0565b61018a565b005b60008060008473ffffffffffffffffffffffffffffffffffffffff1673ffffffffffffffffffffffffffffffffffffffff16815260200190815260200160002060008373ffffffffffffffffffffffffffffffffffffffff1673ffffffffffffffffffffffffffffffffffffffff16815260200190815260200160002060009054906101000a900463ffffffff16905092915050565b60006020528160005260406000206020528060005260406000206000915091509054906101000a900463ffffffff1681565b6000339050836000808373ffffffffffffffffffffffffffffffffffffffff1673ffffffffffffffffffffffffffffffffffffffff16815260200190815260200160002060008773ffffffffffffffffffffffffffffffffffffffff1673ffffffffffffffffffffffffffffffffffffffff16815260200190815260200160002060008282829054906101000a900463ffffffff166102299190610843565b92506101000a81548163ffffffff021916908363ffffffff160217905550600063ffffffff905060005b848490508163ffffffff16101561048d578163ffffffff166000808787898990506001876102819190610843565b63ffffffff1661029191906108b4565b8181106102a1576102a06108e5565b5b90506020020160208101906102b69190610914565b73ffffffffffffffffffffffffffffffffffffffff1673ffffffffffffffffffffffffffffffffffffffff168152602001908152602001600020600087878563ffffffff1681811061030b5761030a6108e5565b5b90506020020160208101906103209190610914565b73ffffffffffffffffffffffffffffffffffffffff1673ffffffffffffffffffffffffffffffffffffffff16815260200190815260200160002060009054906101000a900463ffffffff1663ffffffff16101561047a5760008086868888905060018661038d9190610843565b63ffffffff1661039d91906108b4565b8181106103ad576103ac6108e5565b5b90506020020160208101906103c29190610914565b73ffffffffffffffffffffffffffffffffffffffff1673ffffffffffffffffffffffffffffffffffffffff168152602001908152602001600020600086868463ffffffff16818110610417576104166108e5565b5b905060200201602081019061042c9190610914565b73ffffffffffffffffffffffffffffffffffffffff1673ffffffffffffffffffffffffffffffffffffffff16815260200190815260200160002060009054906101000a900463ffffffff1691505b808061048590610941565b915050610253565b508063ffffffff168563ffffffff1610156104a6578490505b60008163ffffffff1614806104c4575063ffffffff8163ffffffff16145b156104d0575050610627565b60005b848490508163ffffffff16101561062357816000808787898990506001876104fb9190610843565b63ffffffff1661050b91906108b4565b81811061051b5761051a6108e5565b5b90506020020160208101906105309190610914565b73ffffffffffffffffffffffffffffffffffffffff1673ffffffffffffffffffffffffffffffffffffffff168152602001908152602001600020600087878563ffffffff16818110610585576105846108e5565b5b905060200201602081019061059a9190610914565b73ffffffffffffffffffffffffffffffffffffffff1673ffffffffffffffffffffffffffffffffffffffff16815260200190815260200160002060008282829054906101000a900463ffffffff166105f2919061096d565b92506101000a81548163ffffffff021916908363ffffffff160217905550808061061b90610941565b9150506104d3565b5050505b50505050565b600080fd5b600080fd5b600073ffffffffffffffffffffffffffffffffffffffff82169050919050565b600061066282610637565b9050919050565b61067281610657565b811461067d57600080fd5b50565b60008135905061068f81610669565b92915050565b600080604083850312156106ac576106ab61062d565b5b60006106ba85828601610680565b92505060206106cb85828601610680565b9150509250929050565b600063ffffffff82169050919050565b6106ee816106d5565b82525050565b600060208201905061070960008301846106e5565b92915050565b610718816106d5565b811461072357600080fd5b50565b6000813590506107358161070f565b92915050565b600080fd5b600080fd5b600080fd5b60008083601f8401126107605761075f61073b565b5b8235905067ffffffffffffffff81111561077d5761077c610740565b5b60208301915083602082028301111561079957610798610745565b5b9250929050565b600080600080606085870312156107ba576107b961062d565b5b60006107c887828801610680565b94505060206107d987828801610726565b935050604085013567ffffffffffffffff8111156107fa576107f9610632565b5b6108068782880161074a565b925092505092959194509250565b7f4e487b7100000000000000000000000000000000000000000000000000000000600052601160045260246000fd5b600061084e826106d5565b9150610859836106d5565b9250828201905063ffffffff81111561087557610874610814565b5b92915050565b6000819050919050565b7f4e487b7100000000000000000000000000000000000000000000000000000000600052601260045260246000fd5b60006108bf8261087b565b91506108ca8361087b565b9250826108da576108d9610885565b5b828206905092915050565b7f4e487b7100000000000000000000000000000000000000000000000000000000600052603260045260246000fd5b60006020828403121561092a5761092961062d565b5b600061093884828501610680565b91505092915050565b600061094c826106d5565b915063ffffffff820361096257610961610814565b5b600182019050919050565b6000610978826106d5565b9150610983836106d5565b9250828203905063ffffffff81111561099f5761099e610814565b5b9291505056fea2646970667358221220628670c18dec007ec1544a5ef5e5c6c84b55bead5af0027aa94540505b9a1d1864736f6c63430008110033",
  "linkReferences": {},
  "deployedLinkReferences": {}
}