{
  "_format": "hh-sol-artifact-1",
  "contractName": "Splitwise",
  "sourceName": "contracts/mycontract.sol",
  "abi": [
    {
      "inputs": [
        {
          "internalType": "address",
          "name": "creditor",
          "type": "address"
        },
        {
          "internalType": "uint32",
          "name": "amount",
          "type": "uint32"
        },
        {
          "internalType": "address[]",
          "name": "cycle",
          "type": "address[]"
        }
      ],
      "name": "add_IOU",
      "outputs": [],
      "stateMutability": "nonpayable",
      "type": "function"
    },
    {
      "inputs": [
        {
          "internalType": "address",
          "name": "",
          "type": "address"
        },
        {
          "internalType": "address",
          "name": "",
          "type": "address"
        }
      ],
      "name": "balances",
      "outputs": [
        {
          "internalType": "uint32",
          "name": "",
          "type": "uint32"
        }
      ],
      "stateMutability": "view",
      "type": "function"
    },
    {
      "inputs": [
        {
          "internalType": "address",
          "name": "debtor",
          "type": "address"
        },
        {
          "internalType": "address",
          "name": "creditor",
          "type": "address"
        }
      ],
      "name": "lookup",
      "outputs": [
        {
          "internalType": "uint32",
          "name": "",
          "type": "uint32"
        }
      ],
      "stateMutability": "view",
      "type": "function"
    }
  ],
  "bytecode": "0x608060405234801561001057600080fd5b506109c3806100206000396000f3fe608060405234801561001057600080fd5b50600436106100415760003560e01c8063713584a614610046578063c23f001f14610076578063dd033b8d146100a6575b600080fd5b610060600480360381019061005b919061067d565b6100c2565b60405161006d91906106dc565b60405180910390f35b610090600480360381019061008b919061067d565b610158565b60405161009d91906106dc565b60405180910390f35b6100c060048036038101906100bb9190610788565b61018a565b005b60008060008473ffffffffffffffffffffffffffffffffffffffff1673ffffffffffffffffffffffffffffffffffffffff16815260200190815260200160002060008373ffffffffffffffffffffffffffffffffffffffff1673ffffffffffffffffffffffffffffffffffffffff16815260200190815260200160002060009054906101000a900463ffffffff16905092915050565b60006020528160005260406000206020528060005260406000206000915091509054906101000a900463ffffffff1681565b6000339050836000808373ffffffffffffffffffffffffffffffffffffffff1673ffffffffffffffffffffffffffffffffffffffff16815260200190815260200160002060008773ffffffffffffffffffffffffffffffffffffffff1673ffffffffffffffffffffffffffffffffffffffff16815260200190815260200160002060008282829054906101000a900463ffffffff16610229919061082b565b92506101000a81548163ffffffff021916908363ffffffff160217905550600063ffffffff905060005b848490508163ffffffff16101561048d578163ffffffff1660008087878563ffffffff1681811061028757610286610863565b5b905060200201602081019061029c9190610892565b73ffffffffffffffffffffffffffffffffffffffff1673ffffffffffffffffffffffffffffffffffffffff16815260200190815260200160002060008787898990506001876102eb919061082b565b63ffffffff166102fb91906108f8565b81811061030b5761030a610863565b5b90506020020160208101906103209190610892565b73ffffffffffffffffffffffffffffffffffffffff1673ffffffffffffffffffffffffffffffffffffffff16815260200190815260200160002060009054906101000a900463ffffffff1663ffffffff16101561047a5760008086868463ffffffff1681811061039357610392610863565b5b90506020020160208101906103a89190610892565b73ffffffffffffffffffffffffffffffffffffffff1673ffffffffffffffffffffffffffffffffffffffff16815260200190815260200160002060008686888890506001866103f7919061082b565b63ffffffff1661040791906108f8565b81811061041757610416610863565b5b905060200201602081019061042c9190610892565b73ffffffffffffffffffffffffffffffffffffffff1673ffffffffffffffffffffffffffffffffffffffff16815260200190815260200160002060009054906101000a900463ffffffff1691505b808061048590610929565b915050610253565b5060008163ffffffff1614806104ac575063ffffffff8163ffffffff16145b156104b857505061060f565b60005b848490508163ffffffff16101561060b578160008087878563ffffffff168181106104e9576104e8610863565b5b90506020020160208101906104fe9190610892565b73ffffffffffffffffffffffffffffffffffffffff1673ffffffffffffffffffffffffffffffffffffffff168152602001908152602001600020600087878989905060018761054d919061082b565b63ffffffff1661055d91906108f8565b81811061056d5761056c610863565b5b90506020020160208101906105829190610892565b73ffffffffffffffffffffffffffffffffffffffff1673ffffffffffffffffffffffffffffffffffffffff16815260200190815260200160002060008282829054906101000a900463ffffffff166105da9190610955565b92506101000a81548163ffffffff021916908363ffffffff160217905550808061060390610929565b9150506104bb565b5050505b50505050565b600080fd5b600080fd5b600073ffffffffffffffffffffffffffffffffffffffff82169050919050565b600061064a8261061f565b9050919050565b61065a8161063f565b811461066557600080fd5b50565b60008135905061067781610651565b92915050565b6000806040838503121561069457610693610615565b5b60006106a285828601610668565b92505060206106b385828601610668565b9150509250929050565b600063ffffffff82169050919050565b6106d6816106bd565b82525050565b60006020820190506106f160008301846106cd565b92915050565b610700816106bd565b811461070b57600080fd5b50565b60008135905061071d816106f7565b92915050565b600080fd5b600080fd5b600080fd5b60008083601f84011261074857610747610723565b5b8235905067ffffffffffffffff81111561076557610764610728565b5b6020830191508360208202830111156107815761078061072d565b5b9250929050565b600080600080606085870312156107a2576107a1610615565b5b60006107b087828801610668565b94505060206107c18782880161070e565b935050604085013567ffffffffffffffff8111156107e2576107e161061a565b5b6107ee87828801610732565b925092505092959194509250565b7f4e487b7100000000000000000000000000000000000000000000000000000000600052601160045260246000fd5b6000610836826106bd565b9150610841836106bd565b9250828201905063ffffffff81111561085d5761085c6107fc565b5b92915050565b7f4e487b7100000000000000000000000000000000000000000000000000000000600052603260045260246000fd5b6000602082840312156108a8576108a7610615565b5b60006108b684828501610668565b91505092915050565b6000819050919050565b7f4e487b7100000000000000000000000000000000000000000000000000000000600052601260045260246000fd5b6000610903826108bf565b915061090e836108bf565b92508261091e5761091d6108c9565b5b828206905092915050565b6000610934826106bd565b915063ffffffff820361094a576109496107fc565b5b600182019050919050565b6000610960826106bd565b915061096b836106bd565b9250828203905063ffffffff811115610987576109866107fc565b5b9291505056fea26469706673582212202fe13ee7c6889cd052ff4cd477a2edae17013789dc86bd28e883285240fbc96264736f6c63430008110033",
  "linkReferences": {},
  "deployedLinkReferences": {}
}